:1000000019C033C032C031C030C02FC02EC02DC087
:1000100052C12BC02AC029C028C027C026C025C075
:1000200024C023C022C021C020C01FC01EC01DC0CC
:100030001CC01BC011241FBECFEFCDBFDFE3DEBF4E
:100040001FE3A0E0BFE3E6E2F3E002C005900D92FB
:10005000A230B107D9F72FE3A2E0BFE301C01D92A0
:10006000A930B207E1F713D05CC1CACF20910210CA
:1000700021FDFCCF2DE934E024BF30930010FC01BA
:10008000FC5E608383E024BF809300100895E0E16C
:10009000F4E0808188608193878D8860878FE83164
:1000A00084E0F807B1F78091080491E085FB882788
:1000B00080F989278093063F8091080486FB882772
:1000C00080F98093053F80910804881F8827881F46
:1000D0008093043F84E080932504809321048093DF
:1000E00005048093010480E18093010483E0809300
:1000F00000028BE0809382018AE0809383018091EB
:100100003304877F8093330480913004877F80930A
:10011000300480911104877F8093110488ED27E0DB
:1001200030E084BF2093610084BF9093620086D04A
:100130008091053F882339F081E090910014953A31
:1001400021F080E002C08091043F8093023F8091C3
:10015000023F882341F080E18093040484E080938F
:100160009A0183E007C080E18093060483E08093D6
:100170009A0184E080939B0181E080935000789401
:100180008091063F882331F088E592E06CD0809121
:10019000023F74D0FF24F394D0E113E004E088958B
:1001A0008091033F8823D9F3C091023FCF25C093AC
:1001B000023F8091053F882341F0CC2311F065EA8E
:1001C00001C060E080E090E051DFCC2339F0D093B3
:1001D000040400939A0110939B0106C0D093060477
:1001E00010939A0100939B018C2F48D01092033FEB
:1001F000D6CF8091280483FD1AC08091003F909152
:10020000013F019739F481E08093033F1092003F52
:100210001092013F8091003F9091013F18161906FE
:1002200064F48091003F9091013F019702C080EA01
:100230009FE08093003F9093013F0895E0E2F4E057
:1002400082E086838183E0E0FAE081E792E086A3A2
:1002500097A388E391E082A793A783E0818381E05D
:100260008287808308958093073F9093083F809111
:10027000073F9091083F892BD1F708951F93CF93A3
:10028000DF93182FD3E2D093010A88EC90E0EBDFE4
:10029000C3E0C093010A112351F088EC90E0E3DF42
:1002A000D093010A88EC90E0DEDFC093010ADF9171
:1002B000CF911F9108951F920F920FB60F921124A4
:1002C0002F933F934F935F936F937F938F939F935E
:1002D000AF93BF93EF93FF938091073F9091083FB7
:1002E000181619064CF48091073F9091083F01972A
:1002F0008093073F9093083F7CDF81E080930B0A57
:10030000FF91EF91BF91AF919F918F917F916F91ED
:100310005F914F913F912F910F900FBE0F901F90C3
:060320001895F894FFCFD0
:02032600A00F26
:00000001FF
